{
  "contractName": "Counter",
  "abi": [
    {
      "constant": false,
      "inputs": [],
      "name": "incrementCounter",
      "outputs": [],
      "payable": false,
      "stateMutability": "nonpayable",
      "type": "function"
    },
    {
      "constant": false,
      "inputs": [],
      "name": "decrementCounter",
      "outputs": [],
      "payable": false,
      "stateMutability": "nonpayable",
      "type": "function"
    },
    {
      "constant": true,
      "inputs": [],
      "name": "getCount",
      "outputs": [
        {
          "name": "",
          "type": "int256"
        }
      ],
      "payable": false,
      "stateMutability": "view",
      "type": "function"
    }
  ],
  "bytecode": "0x60806040526000805534801561001457600080fd5b5060c6806100236000396000f3fe6080604052348015600f57600080fd5b5060043610603c5760003560e01c80635b34b966146041578063a87d942c146049578063f5c5ad83146065575b600080fd5b6047606d565b005b604f607f565b6040518082815260200191505060405180910390f35b606b6088565b005b60016000808282540192505081905550565b60008054905090565b6001600080828254039250508190555056fea165627a7a72305820e11d38ff11ef9ebe04bfd909c50d7a75649d74e90ce81a11630dc4b0000bab020029",
  "source": "pragma solidity >=0.4.21 <0.6.0;\n\ncontract Counter {\n    int256 private count = 0;\n\n    function incrementCounter() public {\n        count += 1;\n    }\n\n    function decrementCounter() public {\n        count -= 1;\n    }\n\n    function getCount() public view returns (int256) {\n        return count;\n    }\n}\n",
  "sourcePath": "/Users/gupadhyaya/go/src/github.com/harmony-one/counter/contracts/Counter.sol",
  "compiler": {
    "name": "solc",
    "version": "0.5.8+commit.23d335f2.Emscripten.clang"
  },
  "schemaVersion": "3.0.16",
  "updatedAt": "2020-06-30T17:52:54.717Z",
  "devdoc": {
    "methods": {}
  },
  "userdoc": {
    "methods": {}
  }
}